:100000000C946B000C945C0C0C94890C0C94930075
:100010000C9493000C9493000C9493000C94930014
:100020000C9493000C9493000C9493000C94C50BC7
:100030000C9493000C9493000C9493000C949300F4
:100040000C94B60C0C9493000C94A50F0C94D70F41
:100050000C9493000C9493000C9493000C949300D4
:100060000C9493000C9493000000010008004000E1
:1000700000010004050D000000080002010000035B
:100080000407000000000000000001020408102026
:10009000408001020408102001020408102004041A
:1000A0000404040404040202020202020303030320
:1000B00003030000000023002600290000000000C8
:1000C000250028002B0000000000240027002A0043
:1000D000F1007E07071011241FBECFEFD8E0DEBF6E
:1000E000CDBF12E0A0E0B1E0E2E4FAE202C0059088
:1000F0000D92AE3BB107D9F724E0AEEBB2E001C000
:100100001D92A13BB207E1F710E0C6EDD0E004C0BC
:100110002297FE010E940415C03DD107C9F70E9435
:100120004B100C941F150C940000CF93DF93EC013F
:1001300060E171E084E194E00E949810CA30D1053A
:100140002CF460E384E194E00E949A104AE050E0CD
:10015000BE0184E194E0DF91CF910C945A110E948A
:10016000D7054AE050E0BC0184E194E00E945A11B6
:100170000E94DF050E9495000E94E7050E949500FD
:1001800068E671E084E194E00E9498100E94EF0517
:100190004AE050E0BC0184E194E00E945A1168E614
:1001A00071E084E194E00E9498100E94F7054AE013
:1001B00050E0BC0184E194E00E945A1168E671E0CD
:1001C00084E194E00E9498100E94FF054AE050E00C
:1001D000BC0184E194E00E945A1184E194E00C9403
:1001E000A110EF920F93E12C0AE02CE04BE060EDC0
:1001F00077E084EE92E00E94C0070F91EF9008959F
:10020000EF92FF920F931F9326E040E855E260E0E3
:1002100070E084E194E00E94430F61E08DE00E9471
:10022000C60D84EE92E00E94ED0B811106C062E1E2
:1002300071E084E194E00E94A51061E087E00E94F3
:10024000FF0D61E087E00E94C60D8FEDE82E87E08C
:10025000F82E0BE010E024E030E040E050E066E0F3
:1002600070E080E190E00E9403061F910F91FF90E3
:10027000EF900895CF93DF936FEA72E084E194E00A
:100280000E94A51069E070E080EE92E00E948C026E
:10029000EC016EE171E084E194E00E949810CF3FA0
:1002A0008FEFD80751F0209729F0229649F46EE39A
:1002B00071E008C06CE271E005C06FE271E002C05D
:1002C0006DE471E084E194E00E94A5106BE571E0BB
:1002D00084E194E00E9498106091E0027091E10244
:1002E000882777FD8095982F0E947B13AB01BC0176
:1002F00022E030E084E194E00E9465126AE671E059
:1003000084E194E00E9498106091E2027091E3020F
:10031000882777FD8095982F0E947B1326E636E686
:1003200046EE5FE30E942F1420E030E040E052E40C
:100330000E947812AB01BC0122E030E084E194E03D
:100340000E9465120E94AF006091E2027091E30288
:10035000882777FD8095982F0E947B1326E636E646
:1003600046EE5FE30E942F1420E030E040E052E4CC
:100370000E9478126093D4027093D5028093D602C3
:100380009093D7026091E0027091E102882777FD97
:100390008095982F0E947B136093D0027093D102B6
:1003A0008093D2029093D3028091D8029091D90287
:1003B000A091DA02B091DB020196A11DB11D8093DC
:1003C000D8029093D902A093DA02B093DB020E9484
:1003D00046056093DC027093DD028093DE02909309
:1003E000DF0280E1E0EDF2E0A0ECB2E001900D92DE
:1003F0008A95E1F740E160EC72E084EE92E00E94C1
:100400001F09E091E402F091E5020484F585E02DF6
:1004100084EE92E0099560ED77E080E090E00E9444
:100420002F0D6EE771E084E194E00E9498100E9425
:10043000D7054AE050E0BC0184E194E00E946211DB
:100440000E94D705069724F00E94D705089754F01C
:100450000E94D705419744F10E94D70544970CF4B8
:1004600040C022C08091BE029091BF02892B89F4C6
:1004700068E871E084E194E00E94981060E087E011
:100480000E94FF0D81E090E09093BF028093BE0236
:1004900040C06BE971E002C064EC71E084E194E07B
:1004A000DF91CF910C9498108091BE029091BF0281
:1004B000019779F461E087E00E94FF0D6AED71E039
:1004C00084E194E00E94A5101092BF021092BE0237
:1004D00020C06FEE71E084E194E0DF91CF910C9445
:1004E000A5108091BE029091BF02892BA9F681E0F0
:1004F00090E09093BF028093BE0261EB71E084E1D3
:1005000094E00E94981060E087E0DF91CF910C9416
:10051000FF0DDF91CF9108953F924F925F926F92BE
:100520007F928F929F92AF92BF92CF92DF92EF9283
:10053000FF920F931F93CF93DF9300D000D01F92B1
:10054000CDB7DEB75C01562E19821A821B821C823F
:100550001D8261E0852D0E94C60D60E0852D0E9400
:10056000FF0D62E170E080E090E00E942F0D61E0FD
:10057000852D0E94FF0D88E290E00E94570D60E0FB
:10058000852D0E94C60D01E117E2852D0E94350ED2
:10059000892B31F401501109C1F78EEF9FEF6EC026
:1005A00001E117E2852D0E94350E019721F40150DB
:1005B0001109C1F7F2CF08E210E0312C37E0432EE9
:1005C00088248394912C21E1E22E27E2F22E852DBE
:1005D0000E94350E892B29F481E0E81AF108B9F759
:1005E000DCCF0E940C0D6B017C0191E1692E97E23A
:1005F000792E852D0E94350E019729F4E1E06E1ABF
:100600007108B9F7CACF0E940C0D6C197D098E09CB
:100610009F09693271058105910578F0E1E0F0E00C
:10062000EC0FFD1FE30DF11D2081C401042C01C05E
:10063000880F0A94EAF7282B2083411004C03394D2
:1006400087E0482E01C04A940150110909F0BBCF40
:100650002981822F90E0F501918380833B81832F54
:1006600090E093838283230F81E090E03D813213F9
:1006700002C080E090E09195819591090F900F90D4
:100680000F900F900F90DF91CF911F910F91FF90DE
:10069000EF90DF90CF90BF90AF909F908F907F9022
:1006A0006F905F904F903F9008956F927F928F92DE
:1006B0009F92AF92BF92CF92DF92EF92FF920F93F1
:1006C0001F93CF93DF93EA012CE3C22ED12CE12CB0
:1006D000F12CA70196010E94AA146883CA01B901EE
:1006E000A70196010E94AA146983CA01B90128E1F1
:1006F00030E040E050E00E94AA1449015A016A83A8
:10070000CA01B9016C5F7F4F8F4F9F4F27E030E0E8
:1007100040E050E00E94AA146F5F6B8300E010E09D
:10072000980140E054E6652E712C60E9C62EDD2468
:10073000D394E42FF0E0EE54F84F7F0183E0E822F9
:10074000FF24E114F10489F4CF01B3010E9496144F
:10075000892B29F08EE691E0A0E0B0E00AC0CF013D
:10076000B6010E949614892BA9F38DE691E0A0E0D2
:10077000B0E0080F191F2A1F3B1FD901C801AA2783
:10078000BB2788169906AA06BB0610F04F5FD1CF8B
:100790004E83E114F10499F4CF0164E670E00E9405
:1007A0009614892B29F08EE691E0A0E0B0E00BC012
:1007B000CF0160E971E00E949614892BA1F38DE6C8
:1007C00091E0A0E0B0E0081B190B2A0B3B0B801A4C
:1007D000910AA20AB30ACF0164E670E00E9496145F
:1007E0009C01CF0160E971E00E949614EEEFF1E008
:1007F000A0E0A13059F4E114F10451F421153105C0
:1008000011F04DE106C00097E1F302C0408101C044
:100810004CE150E060E070E084169506A606B7064D
:1008200040F0841A950AA60AB70AAF5F3196AC3039
:1008300001F7AF5FAD8383948C82DF91CF911F91DD
:100840000F91FF90EF90DF90CF90BF90AF909F906F
:100850008F907F906F900895CF92DF92EF92FF92EA
:100860006B017C018091F0039091F103A091F20360
:10087000B091F303C816D906EA06FB0671F044EFFF
:1008800053E0C701B6010E945503C092F003D09215
:10089000F103E092F203F092F303FF90EF90DF9008
:1008A000CF9008950E942C048091FA0390E08E541A
:1008B000984F08956F927F928F929F92AF92BF92BE
:1008C000CF92DF92EF92FF920F931F93CF93DF931C
:1008D000FC01C680AC2DB0E020E833E341EE51E0EE
:1008E0000E94DB144B015C0122EB37E06D01C4E692
:1008F000D0E000E911E0C901825B97408C159D05AD
:10090000DCF4C90183709927892B99F4C901BE01D0
:100910000E949614892B31F4C901B8010E949614E3
:10092000892B39F480E8880E81E5981E81E0A81EA5
:10093000B11C2F5F3F4FDFCF6580712C8EE4C81A4A
:1009400088EFD80AC60164E670E00E9496148C0114
:10095000C60160E971E00E9496147C01C1E0D0E01C
:1009600083E0C822DD24C615D7052CF5C230D10599
:1009700089F4C114D10471F40115110519F4E114BD
:10098000F10441F480E8880E8BE3981E86E2A81EED
:10099000B11C0FC0DE01A350BE4FAC91B0E020E807
:1009A00031E541E050E00E94DB14860E971EA81E40
:1009B000B91E2196D8CF4181228130E0A0E1BEE06E
:1009C0000E94CC146B017C01242F30E0ACE3B0E03A
:1009D0000E94CC14C60ED71EE81EF91E8081C80ED8
:1009E000D11CE11CF11CA481B0E0119720E831E595
:1009F00041E050E00E94E614C60ED71EE81EF91E24
:100A0000C80CD91CEA1CFB1CC701B601DF91CF91B1
:100A10001F910F91FF90EF90DF90CF90BF90AF901C
:100A20009F908F907F906F9008950F931F93609386
:100A3000EC037093ED038093EE039093EF0300912A
:100A40000401109105012091060130910701060F64
:100A5000171F281F391F0093E4031093E503209309
:100A6000E6033093E70382E090E09093E303809302
:100A7000E2030E94000D6093E8037093E903809302
:100A8000EA039093EB031F910F910895CF92DF92A9
:100A9000EF92FF920F931F930E94000DC090E80306
:100AA000D090E903E090EA03F090EB036C197D0924
:100AB0008E099F090091EC031091ED032091EE0344
:100AC0003091EF03683E734081059105D8F00F5FC8
:100AD0001F4F2F4F3F4F0093EC031093ED032093D4
:100AE000EE033093EF0348EEC40E43E0D41EE11C46
:100AF000F11CC092E803D092E903E092EA03F0927D
:100B0000EB03CACF8091E4039091E503A091E60343
:100B1000B091E703081719072A073B07C8F1E091CE
:100B2000E003F091E103309799F1099561157105A2
:100B30008105910519F00E9415052AC080910401D4
:100B400090910501A0910601B09107014091EC033D
:100B50005091ED036091EE037091EF03840F951FA8
:100B6000A61FB71F8093E4039093E503A093E603C9
:100B7000B093E70381E090E02091E2033091E3033A
:100B8000232B11F480E090E09093E3038093E20341
:100B90006091EC037091ED038091EE039091EF036F
:100BA0001F910F91FF90EF90DF90CF9008950E94DA
:100BB00046050E942C048091F60390E008950E945F
:100BC00046050E942C048091F50390E008950E9450
:100BD00046050E942C048091F40390E008950E9441
:100BE00046050E942C048091F80390E008950E942D
:100BF00046050E942C048091F90390E008950E941C
:100C000046050C945204EF92FF920F9394E6E91676
:100C1000F1042CF092EBE91A97E0F90A03C09EE187
:100C2000E90EF11CE092FA030093F9032093F80314
:100C30008093F6036093F5034093F40384EF93E00D
:100C40000E945A040F91FF90EF900C9415056827AD
:100C500080E1689F90011124622770E0362F2227DF
:100C6000492F50E0242B352BCB01F4E09595879547
:100C7000FA95E1F728273927CB01A3E0880F991FC0
:100C8000AA95E1F782279327089581E00895FC0152
:100C900065830895FC0164830895FC0162870895CB
:100CA000FC0163870895FC01648708954095FC0169
:100CB00025854223462B45870895FC0186810895AA
:100CC000FC0187810895FC0180850895FC018185E0
:100CD000089580E00895CF93DF93EC01E881F981D6
:100CE0000280F381E02DCE010995811103C00E949D
:100CF0005B0CF4CFDF91CF910895CF93DF93EC019C
:100D00008A819B81039719F40E945B0CF9CF81E0E3
:100D1000DF91CF9108958F929F92AF92BF92CF9221
:100D2000DF92EF92FF92CF93DF93EC016B010E9471
:100D3000000D4B015C01E12CF12C0E94000D6819A3
:100D400079098A099B096C157D058E059F0560F45C
:100D5000E881F9810280F381E02DCE0109958111AE
:100D600005C00E945B0CE9CF80E001C081E0DF910B
:100D7000CF91FF90EF90DF90CF90BF90AF909F907A
:100D80008F9008958F929F92AF92BF92CF92DF92F1
:100D9000EF92FF92CF93DF93EC016B010E94000D65
:100DA0004B015C01E12CF12C0E94000D68197909BE
:100DB0008A099B096C157D058E059F0538F48A818B
:100DC0009B81039729F40E945B0CEECF80E001C069
:100DD00081E0DF91CF91FF90EF90DF90CF90BF90B7
:100DE000AF909F908F900895FC018EE092E09183E8
:100DF0008083138212828FEF848382878387148695
:100E00001586108A1786128A118A148A138A089501
:100E100008950895FC01758364830895FC01778328
:100E200066830895FC01738362830895FC018AE35D
:100E300092E09183808373836283558344833783F5
:100E4000268308956EBD00000DB407FEFDCF8EB55C
:100E500008958CB580688CBD08958CB58F778CBD56
:100E60000895FC01268137812115310579F0213063
:100E7000310541F02230310539F02330310531F4AC
:100E80009CE005C094E003C098E001C090E08CB500
:100E9000837F892B8CBD84819581019719F48CB552
:100EA000806202C08CB58F7D8CBD82819381019759
:100EB0008430910528F4FC01E65BFD4F908101C070
:100EC00091E02CB5892F83702C7F822B8CBD8DB542
:100ED00092FB992790F98E7F892B8DBD0C94110C74
:100EE0000C94470CCF93DF93EC010E94160782E528
:100EF00092E099838883DF91CF91089520E030E0DC
:100F000040E050E060E070E08BEF93E00C947207FB
:100F10008CE30895DF92EF92FF920F931F93CF938C
:100F2000DF93EC017B018A01E881F9810280F38182
:100F3000E02D0995D82E8823D1F0E114F104B1F009
:100F40000115110599F0FE01E759FF4F9081975067
:100F5000F8018081981708F49083F801408150E0EF
:100F6000BE01665D7F4FC7010E9416151D8E8D2D37
:100F7000DF91CF911F910F91FF90EF90DF90089537
:100F8000AF92BF92CF92DF92EF920F93CF93DF9306
:100F9000CDB7DEB72A970FB6F894DEBF0FBECDBF30
:100FA0006C015B012A8749870E94F40686E692E07D
:100FB000F60191838083B68AA58A4985478B2A8565
:100FC000208F018FE38E88E0E8E0F1E0DE011196EA
:100FD00001900D928A95E1F7D601A359BF4F88E0A1
:100FE000FE01319601900D928A95E1F72A960FB68F
:100FF000F894DEBF0FBECDBFDF91CF910F91EF9080
:10100000DF90CF90BF90AF9008952F923F924F9274
:101010005F926F927F928F929F92AF92BF92CF9288
:10102000DF92EF92FF920F931F93CF93DF9300D045
:1010300000D01F92CDB7DEB71A013D832C83611516
:10104000710511F4F90143C06B01E12CF12C83E02F
:10105000CC0CDD1CEE1CFF1C8A95D1F70AE610E0D3
:10106000F1E0FB83812C94E2992E94EFA92EB12C10
:101070002A01612C712C42E050E0B801CE010196AA
:101080000E940D1529813A8140E050E0C501B4016C
:101090000E94AA14CA01B901A70196010E94AA14CC
:1010A000223031054105510528F024153505460546
:1010B000570540F08B818F5F8B830E5F1F4F87300A
:1010C000D1F609C0EB81E63059F4EC81FD81118243
:1010D000108280E012C02230310541055105A8F38D
:1010E000C101A0E0B0E082179307A407B50768F339
:1010F000EC81FD81318320838B810F900F900F90C5
:101100000F900F90DF91CF911F910F91FF90EF9073
:10111000DF90CF90BF90AF909F908F907F906F9017
:101120005F904F903F902F900895CF93DF9300D022
:10113000CDB7DEB7FC01658976899E012F5F3F4FF1
:101140004FEF5FEF0E9405088823A9F010928000FE
:1011500098E09093810090918100982B909381006A
:1011600089819A81909389008093880080916F0093
:10117000826080936F000F900F90DF91CF91089560
:10118000CF93DF93EC018F890E94350E21E0892BEC
:1011900009F420E08A8D8227DF91CF910895FC0128
:1011A000808D0C94FF0DFC01238D6227818D0C94A2
:1011B000FF0DCF93DF93EC018A819B81029761F051
:1011C00060E0CE010E94D30860E0CE010E94CF080B
:1011D00082E090E09B838A83DF91CF910895CF9343
:1011E000DF93EC018A819B81049761F060E0CE017E
:1011F0000E94D30860E0CE010E94CF0884E090E016
:101200009B838A83DF91CF910895CF93DF93EC0185
:101210008A819B81039781F0FE01E659FF4F10827E
:10122000319610823196108261E0CE010E94D3087F
:1012300083E090E09B838A83DF91CF9108956F9242
:101240007F929F92AF92BF92CF92DF92EF92FF92E6
:101250000F931F93CF93DF9300D0CDB7DEB73C0140
:10126000B62E4D3308F018C17C0125E7E20EF11CC3
:10127000DC01ED91FC910484F585E02D4A837983AE
:1012800009954A8117E0140F612F8FEF9FEF0E949D
:101290002706E12FF0E0A4E0F595E795AA95E1F7A0
:1012A000E257FD4F2081F70120831F70E12FF0E00E
:1012B000E257FD4F2081F301EA58FF4F2083D3010D
:1012C0001A966C910E942706F3012285E22FF0E026
:1012D000B4E0F595E795BA95E1F7E257FD4F308117
:1012E000D301A958BF4F3C932F70E22FF0E0E25793
:1012F000FD4F2081F301E858FF4F2083D3011B9657
:101300006C910E942706F3012385E22FF0E014E0A0
:10131000F595E7951A95E1F7E257FD4F3081D30136
:10132000A758BF4F3C932F70E22FF0E0E257FD4FDC
:101330002081F301E658FF4F2083D3011C966C9166
:101340000E942706F3012485E22FF0E004E0F595E2
:10135000E7950A95E1F7E257FD4F3081D301A55893
:10136000BF4F3C932F70E22FF0E0E257FD4F2081FA
:10137000F301E458FF4F2083D3011D966C910E9426
:101380002706F3012585E22FF0E034E0F595E79597
:101390003A95E1F7E257FD4F3081D301A358BF4F93
:1013A0003C932F70E22FF0E0E257FD4F2081F301D4
:1013B000E258FF4F20839B2C6301F0E8CF0ED11C35
:1013C0000B2D7981172F4A81202F2919241718F501
:1013D0005801D8016C914A830E942706F601319783
:1013E000D8012D918D01A22FB0E074E0B595A7959D
:1013F0007A95E1F7A257BD4F2C912083D501EC914E
:10140000EF70F0E0E257FD4F2081F6012083F2E01B
:10141000CF0ED11CD8CF50E04B5F5F4F440F551F0C
:1014200080959095E40EF51EDC0134E0B695A79505
:101430003A95E1F7AF70BB27A257BD4F2C91D7016A
:101440002C93FC01EF70FF27E257FD4F208111968E
:101450002C931197FC01EF2FFF27E295EF70E257D5
:10146000FD4F208112962C931297E92FFF27EF70E2
:10147000FF27E257FD4F808113968C93F301E550CF
:10148000FF4F445F4083C3010E940509709204042A
:101490006092030481E001C080E00F900F90DF9123
:1014A000CF911F910F91FF90EF90DF90CF90BF9061
:1014B000AF909F907F906F900895862F8695869528
:1014C000887098E0980F891749F0E82FF0E0E2570C
:1014D000FD4F2081621719F08F5FF5CF80E00895EE
:1014E000FF920F931F93CF93DF93EC01F12C8FEFBB
:1014F0009FEF8E0107591F4FF8012081F21640F42B
:10150000FE01EF0DF11D65A10E942706F394F4CFB3
:10151000883B904F39F08F8598890196988B8F87FB
:101520001D8E19C08EA18E838FA18F8388A5888779
:1015300089A589878D81811107C09E818C8198172B
:1015400019F08E818F3F39F489899A8901969A8B97
:10155000898B81E08D8FDF91CF911F910F91FF904B
:101560000895CF93DF93EC018A819B81039761F00B
:10157000CE010E94EF088C8D882321F0CE010E94BD
:10158000700A1C8E8D8D01C080E0DF91CF9108958F
:101590001F93CF93DF93EC010E94C008882319F0BA
:1015A0009F8D9F5F9F8F9E8D891771F098A19035B9
:1015B00018F42BE030E002C02DE130E098A1290FB3
:1015C000311D28A38E8F03C088A18C5E88A388A1BB
:1015D000803A08F46EC08AA19BA1969587959BA33B
:1015E0008AA38F8D853028F08AA19BA198609BA348
:1015F0008AA388A1805A88A31F8E89A1882309F411
:1016000046C08CA18F5F8CA38C3008F452C06AA1B5
:101610007BA16F73CE010E945D0A182F6AA17BA186
:1016200046E0769567954A95E1F7CE010E945D0AFE
:1016300090E1199F90011124822BBE0167597F4FC1
:10164000FB019081DE01A859BF4F9923B1F0FB0146
:10165000908121E0290F2083AE01490F511DFA012D
:1016600085A3FB0190818C91981778F019A281E0F5
:101670008C8FCE010E94D90808C08C939C91973022
:1016800090F09C91943478F4E2CF1CA212C08AA10D
:101690009BA188339B4069F481E089A31CA2C759B0
:1016A000DF4F188206C019A28F8598890196988B02
:1016B0008F87DF91CF911F910895CF92DF92EF92A4
:1016C000FF920F931F93CF93DF93EC018C0104598A
:1016D0001F4FF801808191E0980F9083811136C0EF
:1016E0006E01FAE6CF0ED11CF6018081EF56FF4F56
:1016F0009081891748F0CE010E94D9088B899C8976
:1017000001969C8B8B8B22C0FE01E80FF11DE359E3
:10171000FF4F608170E07E01FBE6EF0EF11CF701E8
:10172000808191E0980F908302C0759567958A95A6
:10173000E2F76170CE010E94CF08F7018081863008
:1017400028F01082F60180818F5F8083F80180810C
:10175000883008F01082DF91CF911F910F91FF9098
:10176000EF90DF90CF900895FC01228133812430E7
:10177000310511F40C94C80AFC0122813381233015
:10178000310511F40C945D0B08951F920F920FB662
:101790000F9211242F933F934F935F936F937F93F7
:1017A0008F939F93AF93BF93EF93FF938091030425
:1017B000909104040E94B40BFF91EF91BF91AF91FF
:1017C0009F918F917F916F915F914F913F912F9159
:1017D0000F900FBE0F901F9018951F93CF93DF931C
:1017E000EC010E944506182F8823B1F0D093040421
:1017F000C093030461E0888D0E94C60D60E08F896C
:101800000E94C60D61E0898D0E94C60DCE010E9426
:10181000D908CE010E949508812FDF91CF911F91A9
:101820000895CF93CFB7F89480910604811127C013
:10183000E8EAF0E08491E4E9F0E09491E82FF0E048
:10184000EE0FFF1FEA53FF4FA591B4918C918923AE
:1018500021F461E08AE00E94FF0D61E08AE00E94CD
:10186000C60D8CB580618CBD8CB580648CBD61E08B
:101870008DE00E94C60D61E08BE00E94C60D809154
:1018800006048F5F80930604CFBFCF9108959FB762
:10189000F89480910604882319F0815080930604FF
:1018A00080910604811105C08CB58F7B8CBD109290
:1018B00005049FBF089508951F920F920FB60F92CF
:1018C00011242F933F934F935F936F937F938F9345
:1018D0009F93AF93BF93EF93FF93809107049091F1
:1018E0000804892B29F0E0910704F0910804099578
:1018F000FF91EF91BF91AF919F918F917F916F91E8
:101900005F914F913F912F910F900FBE0F901F90BD
:1019100018951F920F920FB60F9211242F933F9399
:101920004F935F936F937F938F939F93AF93BF93E7
:10193000EF93FF938091090490910A04892B29F079
:10194000E0910904F0910A040995FF91EF91BF918C
:10195000AF919F918F917F916F915F914F913F9147
:101960002F910F900FBE0F901F9018951F920F92FE
:101970000FB60F9211242F933F938F939F93AF93A2
:10198000BF9380910C0490910D04A0910E04B0912E
:101990000F0430910B0423E0230F2D3720F4019620
:1019A000A11DB11D05C026E8230F0296A11DB11D82
:1019B00020930B0480930C0490930D04A0930E04C9
:1019C000B0930F048091100490911104A09112041F
:1019D000B09113040196A11DB11D80931004909342
:1019E0001104A0931204B0931304BF91AF919F917F
:1019F0008F913F912F910F900FBE0F901F901895D0
:101A00002FB7F89460910C0470910D0480910E042E
:101A100090910F042FBF08953FB7F8948091100460
:101A200090911104A0911204B091130426B5A89BC3
:101A300005C02F3F19F00196A11DB11D3FBF6627BC
:101A4000782F892F9A2F620F711D811D911D42E001
:101A5000660F771F881F991F4A95D1F70895CF9277
:101A6000DF92EF92FF92CF93DF936B017C010E9494
:101A70000C0DEB01C114D104E104F10489F00E94C2
:101A80005B0C0E940C0D6C1B7D0B683E734090F349
:101A900081E0C81AD108E108F108C851DC4FEACF4B
:101AA000DF91CF91FF90EF90DF90CF90089582303B
:101AB000910538F0880F991F880F991F0597019796
:101AC000F1F70895789484B5826084BD84B581600F
:101AD00084BD85B5826085BD85B5816085BDEEE636
:101AE000F0E0808181608083E1E8F0E01082808115
:101AF00082608083808181608083E0E8F0E0808183
:101B000081608083E1EBF0E0808184608083E0EBA2
:101B1000F0E0808181608083EAE7F0E0808184608A
:101B200080838081826080838081816080838081E6
:101B3000806880831092C1000895833081F028F47A
:101B4000813099F08230A1F008958730A9F0883073
:101B5000B9F08430D1F4809180008F7D03C08091F2
:101B600080008F7780938000089584B58F7702C0BE
:101B700084B58F7D84BD08958091B0008F7703C0B8
:101B80008091B0008F7D8093B0000895CF93DF9354
:101B900090E0FC01E657FF4F2491FC01E256FF4F15
:101BA0008491882349F190E0880F991FFC01EA5342
:101BB000FF4FA591B49184549F4FFC01C591D491DE
:101BC0009FB7611108C0F8948C91209582238C9363
:101BD000888182230AC0623051F4F8948C91322FAC
:101BE000309583238C938881822B888304C0F8945A
:101BF0008C91822B8C939FBFDF91CF9108950F938F
:101C00001F93CF93DF931F92CDB7DEB7282F30E01D
:101C1000F901EA58FF4F8491F901E657FF4F1491FB
:101C2000F901E256FF4F04910023C9F0882321F007
:101C300069830E949D0D6981E02FF0E0EE0FFF1F88
:101C4000E454FF4FA591B4919FB7F8948C91611122
:101C500003C01095812301C0812B8C939FBF0F90EF
:101C6000DF91CF911F910F910895CF93DF93282F8C
:101C700030E0F901EA58FF4F8491F901E657FF4F30
:101C8000D491F901E256FF4FC491CC2391F0811118
:101C90000E949D0DEC2FF0E0EE0FFF1FEE54FF4F62
:101CA000A591B4912C912D2381E090E021F480E066
:101CB00002C080E090E0DF91CF9108950E94081566
:101CC000FC01818D228D90E0805C9F4F821B9109E9
:101CD0008F7399270895FC01918D828D981731F0AB
:101CE000828DE80FF11D858D90E008958FEF9FEFB5
:101CF0000895FC01918D828D981761F0828DDF012E
:101D0000A80FB11D5D968C91928D9F5F9F73928FEE
:101D100090E008958FEF9FEF08958DEF9FE0892B5E
:101D200049F080E090E0892B29F00E94FD0F81119D
:101D30000C9400000895FC01848DDF01A80FB11DF3
:101D4000A35ABF4F2C91848D90E001968F739927F1
:101D5000848FA689B7892C93A089B1898C918064DE
:101D60008C93938D848D981306C00288F389E02D9F
:101D700080818F7D80830895CF93DF93EC01888DE0
:101D80008823C9F0EA89FB89808185FD05C0A8897F
:101D9000B9898C9186FD0FC00FB607FCF5CF808105
:101DA00085FFF2CFA889B9898C9185FFEDCFCE014F
:101DB0000E949B0EE7CFDF91CF910895CF92DF92E3
:101DC000FF920F931F93CF93DF931F92CDB7DEB790
:101DD0006C0181E0D60158968C9358975B969C9144
:101DE0005B975C968C915C97981307C05096ED9129
:101DF000FC915197808185FD2EC0F601038D10E086
:101E00000F5F1F4F0F731127F02EF601848DF8120C
:101E100011C00FB607FCF9CFD6015096ED91FC9199
:101E20005197808185FFF1CFC60169830E949B0E87
:101E30006981EBCF838DE80FF11DE35AFF4F60837B
:101E4000D6015B960C935B975296ED91FC9153975C
:101E5000808180620CC0D6015696ED91FC91579717
:101E600060835096ED91FC915197808180648083CE
:101E700081E090E00F90DF91CF911F910F91FF9043
:101E8000DF90CF900895BF92CF92DF92EF92FF92B2
:101E9000CF93DF93EC016A017B01B22EE889F989C7
:101EA00082E08083411581EE580761057105A1F03C
:101EB00060E079E08DE390E0A70196010E94AA140A
:101EC0002150310941095109569547953795279574
:101ED000211580E1380798F0E889F989108260E8D7
:101EE00074E88EE190E0A70196010E94AA142150A7
:101EF0003109410951095695479537952795EC8544
:101F0000FD853083EE85FF852083188EEC89FD8961
:101F1000B082EA89FB89808180618083EA89FB89BC
:101F2000808188608083EA89FB89808180688083E2
:101F3000EA89FB8980818F7D8083DF91CF91FF903B
:101F4000EF90DF90CF90BF9008951F920F920FB641
:101F50000F9211242F938F939F93EF93FF93E09110
:101F60002404F09125048081E0912A04F0912B044F
:101F700082FD12C0908180912D048F5F8F7320911C
:101F80002E04821751F0E0912D04F0E0EC5EFB4F3F
:101F9000958F80932D0401C08081FF91EF919F91D7
:101FA0008F912F910F900FBE0F901F9018951F9239
:101FB0000F920FB60F9211242F933F934F935F937D
:101FC0006F937F938F939F93AF93BF93EF93FF9301
:101FD00084E194E00E949B0EFF91EF91BF91AF913D
:101FE0009F918F917F916F915F914F913F912F9131
:101FF0000F900FBE0F901F90189584E194E00E94FF
:10200000600E21E0892B09F420E0822F08951092C0
:1020100017041092160488EE93E0A0E0B0E08093DD
:10202000180490931904A0931A04B0931B0482EA35
:1020300092E0909315048093140485EC90E09093C3
:1020400021048093200484EC90E0909323048093F7
:10205000220480EC90E0909325048093240481EC8A
:1020600090E0909327048093260482EC90E0909374
:1020700029048093280486EC90E090932B048093AD
:102080002A0410922D0410922E0410922F04109204
:102090003004089508950E94620D0E944A100E9423
:1020A0000001CDE8DEE00E943A012097E1F30E94B2
:1020B0008D0EF9CFCF92DF92EF92FF920F931F9385
:1020C000CF93DF936C017A01EB01E60EF71E00E07F
:1020D00010E0CE15DF0561F06991D601ED91FC911C
:1020E0000190F081E02DC6010995080F191FF1CF6D
:1020F000C801DF91CF911F910F91FF90EF90DF907A
:10210000CF9008956115710581F0DB010D900020DD
:10211000E9F7AD0141505109461B570BDC01ED9128
:10212000FC910280F381E02D099480E090E0089515
:102130000C948210DC01ED91FC910190F081E02D76
:1021400009946EEA72E00C9482100F931F93CF9360
:10215000DF93EC010E9482108C01CE010E94A1103D
:10216000800F911FDF91CF911F910F9108958F9252
:102170009F92AF92BF92CF92DF92EF92FF920F9316
:102180001F93CF93DF93CDB7DEB7A1970FB6F89427
:10219000DEBF0FBECDBF7C01C42EE52FCB01D22EFA
:1021A00019A221E02D1510F02AE0D22E8E010F5D2C
:1021B0001F4F8D2C912CA12CB12C6C2D7E2FA501A5
:1021C00094010E94AA148C2DD29E801911240150D2
:1021D00011098A3014F4805D01C0895CF8018083A4
:1021E000211531054105510521F0C22EE32FCA0109
:1021F000E4CFB801C7010E948210A1960FB6F894EF
:10220000DEBF0FBECDBFDF91CF911F910F91FF9029
:10221000EF90DF90CF90BF90AF909F908F900895F8
:10222000CF92DF92EF92FF920F931F93CF93DF93A2
:10223000EC016A017B012115310579F4E881F9810E
:102240000190F081E02D642FDF91CF911F910F91CC
:10225000FF90EF90DF90CF9009942A303105E9F498
:1022600077FF1AC06DE20E949A108C01442755270F
:10227000BA014C195D096E097F092AE0CE010E945E
:10228000B710800F911FDF91CF911F910F91FF9099
:10229000EF90DF90CF9008952AE0B701A601CE011C
:1022A000DF91CF911F910F91FF90EF90DF90CF9032
:1022B0000C94B7109A01AB01662757FD6095762FF5
:1022C0000C9410110F931F93CF93DF93EC019A019D
:1022D000AB01662757FD6095762F0E9410118C0187
:1022E000CE010E94A110800F911FDF91CF911F910D
:1022F0000F9108954F925F926F927F928F929F926B
:10230000AF92BF92CF92DF92EF92FF920F931F9303
:10231000CF93DF93EC016A017B01B22E9A01AB01EE
:10232000C701B6010E949214882319F061EB72E094
:1023300027C026013701E89477F82FEF3FEF4FE7EA
:102340005FE7C301B2010E94921481110DC02FEF0B
:102350003FEF4FE75FE7C301B2010E94DC1218169E
:102360001CF465EB72E00CC02FEF3FEF4FE75FE42A
:10237000C701B6010E942B141816ACF469EB72E089
:10238000CE01DF91CF911F910F91FF90EF90DF90E1
:10239000CF90BF90AF909F908F907F906F905F9005
:1023A0004F900C9482102FEF3FEF4FE75FECC70187
:1023B000B6010E94DC1287FDE1CF20E030E0A901E8
:1023C000C701B6010E94DC1287FF0AC06DE2CE0190
:1023D0000E949A108C01F7FAF094F7F8F09402C07A
:1023E00000E010E0A12C60E070E080E09FE3AB141F
:1023F00041F020E030E040E251E40E94E012A3947A
:10240000F6CF9B01AC01C701B6010E9478126B01A7
:102410007C010E944D132B013C010E9479139B010A
:10242000AC01C701B6010E9477126B017C012AE062
:10243000B301A201CE010E94B710080F191FBB20E3
:1024400039F06CEF71E0CE010E948210080F191F65
:102450007B2C772041F120E030E040E251E4C701DD
:10246000B6010E942F146B017C010E9448134B019E
:10247000AA2497FCA094BA2C2AE030E0B501A4016C
:10248000CE010E941011080F191FC501B4010E944E
:102490007B139B01AC01C701B6010E9477126B014F
:1024A0007C017A94D6CFC801DF91CF911F910F9113
:1024B000FF90EF90DF90CF90BF90AF909F908F9064
:1024C0007F906F905F904F9008950F931F93CF93DD
:1024D000DF93EC010E947A118C01CE010E94A110C1
:1024E000800F911FDF91CF911F910F910895505848
:1024F000BB27AA270ED075C166D130F06BD120F072
:1025000031F49F3F11F41EF45BC10EF4E095E7FB3C
:1025100051C1E92F77D180F3BA1762077307840797
:10252000950718F071F49EF58FC10EF4E0950B2E0F
:10253000BA2FA02D0B01B90190010C01CA01A00115
:102540001124FF27591B99F0593F50F4503E68F170
:102550001A16F040A22F232F342F4427585FF3CFB1
:10256000469537952795A795F0405395C9F77EF482
:102570001F16BA0B620B730B840BBAF09150A1F0CB
:10258000FF0FBB1F661F771F881FC2F70EC0BA0F51
:10259000621F731F841F48F4879577956795B795D9
:1025A000F7959E3F08F0B3CF9395880F08F09927D1
:1025B000EE0F979587950895D9D008F481E0089596
:1025C0000CD00FC107D140F0FED030F021F45F3FB6
:1025D00019F0F0C0511139C1F3C014D198F3992307
:1025E000C9F35523B1F3951B550BBB27AA276217D7
:1025F0007307840738F09F5F5F4F220F331F441F1C
:10260000AA1FA9F333D00E2E3AF0E0E830D0915053
:102610005040E695001CCAF729D0FE2F27D0660F40
:10262000771F881FBB1F261737074807AB07B0E87F
:1026300009F0BB0B802DBF01FF2793585F4F2AF095
:102640009E3F510568F0B6C000C15F3FECF3983E75
:10265000DCF3869577956795B795F7959F5FC9F7F2
:10266000880F911D9695879597F90895E1E0660F7B
:10267000771F881FBB1F621773078407BA0720F0F4
:10268000621B730B840BBA0BEE1F88F7E09508955D
:1026900004D06894B111D9C00895BCD088F09F5778
:1026A00090F0B92F9927B751A0F0D1F0660F771F9E
:1026B000881F991F1AF0BA95C9F712C0B13081F07E
:1026C000C3D0B1E00895C0C0672F782F8827B85FC6
:1026D00039F0B93FCCF3869577956795B395D9F7DF
:1026E0003EF490958095709561957F4F8F4F9F4FE9
:1026F0000895E89409C097FB3EF4909580957095F5
:1027000061957F4F8F4F9F4F9923A9F0F92F96E93D
:10271000BB279395F695879577956795B795F111B2
:10272000F8CFFAF4BB0F11F460FF1BC06F5F7F4F4F
:102730008F4F9F4F16C0882311F096E911C0772361
:1027400021F09EE8872F762F05C0662371F096E86A
:10275000862F70E060E02AF09A95660F771F881F39
:10276000DAF7880F9695879597F90895990F0008DD
:10277000550FAA0BE0E8FEEF16161706E807F90753
:10278000C0F012161306E407F50798F0621B730BEE
:10279000840B950B39F40A2661F0232B242B252B6F
:1027A00021F408950A2609F4A140A6958FEF811D12
:1027B000811D089597F99F6780E870E060E00895B3
:1027C0009FEF80EC089500240A9416161706180649
:1027D0000906089500240A94121613061406050625
:1027E0000895092E0394000C11F4882352F0BB0FB6
:1027F00040F4BF2B11F460FF04C06F5F7F4F8F4F19
:102800009F4F089557FD9058440F551F59F05F3F53
:1028100071F04795880F97FB991F61F09F3F79F002
:1028200087950895121613061406551FF2CF469584
:10283000F1DF08C0161617061806991FF1CF869506
:102840007105610508940895E894BB2766277727EA
:10285000CB0197F908958ADF08F48FEF08950BD024
:10286000C0CFB1DF28F0B6DF18F0952309F0A2CF72
:10287000A7CF1124EACFC6DFA0F3959FD1F3950F20
:1028800050E0551F629FF001729FBB27F00DB11DF4
:10289000639FAA27F00DB11DAA1F649F6627B00D84
:1028A000A11D661F829F2227B00DA11D621F739F6D
:1028B000B00DA11D621F839FA00D611D221F749F7B
:1028C0003327A00D611D231F849F600D211D822FC2
:1028D000762F6A2F11249F5750408AF0E1F0882309
:1028E0004AF0EE0FFF1FBB1F661F771F881F915016
:1028F0005040A9F79E3F510570F05CCFA6CF5F3FD7
:10290000ECF3983EDCF3869577956795B795F79548
:10291000E7959F5FC1F7FE2B880F911D96958795D0
:1029200097F9089523DF880B990B089597FB072EDD
:1029300016F4009407D077FD09D00E94EE1407FC2E
:1029400005D03EF4909581959F4F089570956195BF
:102950007F4F0895A1E21A2EAA1BBB1BFD010DC0DB
:10296000AA1FBB1FEE1FFF1FA217B307E407F5073F
:1029700020F0A21BB30BE40BF50B661F771F881F1B
:10298000991F1A9469F760957095809590959B01B1
:10299000AC01BD01CF010895A29FB001B39FC0015A
:1029A000A39F700D811D1124911DB29F700D811D7B
:1029B0001124911D08950E94CC14A59F900DB49FE1
:1029C000900DA49F800D911D11240895B7FF0C94C4
:1029D000DB140E94DB14821B930B0895AA1BBB1B04
:1029E00051E107C0AA1FBB1FA617B70710F0A61B0F
:1029F000B70B881F991F5A95A9F780959095BC0130
:102A0000CD010895EE0FFF1F0590F491E02D09947C
:102A100081E090E0F8940C941F15FB01DC0102C0EA
:102A200005900D9241505040D8F70895FB01DC010C
:102A300002C001900D9241505040D8F70895F8948B
:022A4000FFCFC6
:102A4200010000002C0100002A2A2A2A2A2A382CF6
:102A52003A00696E6974206661696C65640052654A
:102A620061642073656E736F723A20004F4B0043AE
:102A72006865636B73756D206572726F720054695D
:102A82006D65206F7574206572726F7200556E6B82
:102A92006E6F776E206572726F720048756D696431
:102AA200697479202825293A200054656D70657271
:102AB20061747572652028C2B046293A2000486FB9
:102AC20075722069733A200053657474696E6720C9
:102AD20052656C6179206F6E2E2E0052656C6179A1
:102AE2002073686F756C64206265206F6E2E2E31C4
:102AF2000053657474696E672052656C6179206F4A
:102B02006E2E320052656C61792073686F756C6449
:102B1200206265206F6E2E2E330073657474696EA9
:102B2200672072656C6179206F66662E2E340072A2
:102B3200656C6179206973206F66662E2E001F1CFA
:102B42001F1E1F1E1F1F1E1F1E1F00000000450606
:102B52005E0E5E0E5E0E5E0E6B067D06C2068B0676
:102B62004A064D0650065306560647065D0660069F
:102B7200630666066906000000005E0E0807090784
:102B82005E0E5E0E0A070E0712070500040400001F
:102B92000000220729072D07310770070A070E07D1
:102BA200120700000000ED0BB10A8A071F0988070F
:102BB2006B067D06C2068B064A064D065006530674
:102BC200560647065D0660066306660669060D0E32
:102BD200131516191A1C232526292A2C3234000013
:102BE2000000DE0E5A10600E790E6B0EBC0E0D0A3E
:0E2BF200006E616E00696E66006F7666000010
:00000001FF
